:020000040800F2
:1000000000280020E53C00084504000847040008DB
:10001000490400084B0400084D04000800000000DB
:100020000000000000000000000000004F04000875
:1000300051040008000000005304000855040008A3
:100040002D3D00082D3D00082D3D00082D3D0008E8
:100050002D3D00082D3D00082D3D00082D3D0008D8
:100060002D3D00082D3D00082D3D00082D3D0008C8
:100070002D3D00082D3D00082D3D00082D3D0008B8
:100080002D3D00082D3D00082D3D00082D3D0008A8
:100090005D0400082D3D00082D3D00082D3D0008A1
:1000A0002D3D00082D3D00082D3D00082D3D000888
:1000B0002D3D00082D3D0008000000002D3D0008EA
:1000C0002D3D000800000000000000002D3D00084C
:1000D000000000002D3D00082D3D0008000000003C
:1000E0002D3D00082D3D00082D3D000800000000BA
:1000F0000000000000000000000000000000000000
:0C01000000000000000000005FF808F1A3
:10010C0010B5054C237833B9044B13B10448AFF345
:10011C0000800123237010BD580100200000000056
:10012C00783D000808B5034B1BB103490348AFF3F6
:10013C00008008BD000000005C010020783D000834
:10014C00034613F8012B002AFBD1181A013870470B
:10015C002DE9F04105460E4600241CE0374F0223E2
:10016C003B702B5D3D3BBB70DFF8D48008223946D9
:10017C00404602F001FF0F2000F0BCF900233B7059
:10018C00BB7008223946404602F0F6FE192000F0FA
:10019C00B1F90134A4B2B4424DD22B5DA3F14102AA
:1001AC00D2B2192ADAD9A3F16102D2B2192A18D91A
:1001BC00202B2BD00A2BE9D1204F2823BB70DFF842
:1001CC00808008223946404602F0D6FE0F2000F00F
:1001DC0091F90023BB7008223946404602F0CCFE50
:1001EC00D4E75D3B154FBB70DFF8548008223946CD
:1001FC00404602F0C1FE0F2000F07CF90023BB70DA
:10020C0008223946404602F0B7FEBFE70B4F2C23BD
:10021C00BB70DFF82C8008223946404602F0ACFE59
:10022C000F2000F067F90023BB70082239464046C6
:10023C0002F0A2FEAAE7BDE8F08100BF7401002025
:10024C004002002082B00A4B9A6942F020029A6167
:10025C009A6902F020020092009A9A6942F0040214
:10026C009A619B6903F004030193019B02B07047F0
:10027C000010024072B6FEE708B50A480A4B03604C
:10028C004FF4E133436000238360C36003610C22AD
:10029C0042618361C36101F0FBFD00B908BDFFF74A
:1002AC00E9FF00BFF80100200038014000B595B00F
:1002BC0000230C930D930F931093059306930793C0
:1002CC0008930993019302930393049301220A92D6
:1002DC004FF480330B930E920222119212934FF42F
:1002EC00E01313930AA801F0E7F9C0B90F230593A3
:1002FC0002210691002307934FF480620892099320
:10030C0005A801F019FC60B9102301930023049394
:10031C0001A801F0EBFC30B915B05DF804FBFFF758
:10032C00A9FFFFF7A7FFFFF7A5FF000008B500F036
:10033C00BDF8FFF7BBFFFFF785FFFFF79DFF03F04D
:10034C000FFB0C4C0C4D0FCD0FC40FCD0FC40FCDAC
:10035C000FC495E8070003C42270064C2046FFF733
:10036C00EFFE01462046FFF7F3FE4FF47A7000F0E3
:10037C00C1F8F2E77C010020BC3D000882B00E4BB6
:10038C009A6942F001029A619A6902F001020092A4
:10039C00009ADA6942F08052DA61DB6903F080532B
:1003AC000193019B054A536823F0E06343F000730B
:1003BC00536002B0704700BF0010024000000140C3
:1003CC0010B586B00023029303930493059302683F
:1003DC00174B9A4201D006B010BD03F558439A69E9
:1003EC0042F480429A619A6902F480420092009A27
:1003FC009A6942F004029A619B6903F00403019329
:10040C00019B4FF400730293022303930323059380
:10041C00084C02A9204600F0EBF84FF480630293DD
:10042C0000230393049302A9204600F0E1F8D2E7DD
:10043C000038014000080140FEE7FEE7FEE7FEE75A
:10044C00FEE770477047704708B500F041F808BDEB
:10045C0008B5024800F0EEFE08BD00BF04070020FE
:10046C007047000010B504460E4B18784FF47A73A1
:10047C00B3FBF0F30C4A1068B0FBF3F000F0A2F8F9
:10048C0068B90F2C01D901200AE0002221464FF057
:10049C00FF3000F055F8034B5C60002000E00120B9
:1004AC0010BD00BF040000200000002008B5074A62
:1004BC00136843F010031360032000F02FF80020A2
:1004CC00FFF7D0FFFFF75AFF002008BD00200240C5
:1004DC00034A1168034B1B780B441360704700BF31
:1004EC003C02002004000020014B1868704700BF3C
:1004FC003C02002038B50446FFF7F6FF0546B4F180
:10050C00FF3F02D0044B1B781C44FFF7EDFF401B50
:10051C00A042FAD338BD00BF04000020074AD368BC
:10052C0023F4E0631B041B0C000200F4E06018438E
:10053C0040F0BF6040F40030D060704700ED00E048
:10054C0030B4174BDB68C3F30223C3F10704042C4C
:10055C0028BF04241D1D062D18D9033B4FF0FF3571
:10056C0005FA04F421EA0401994005FA03F322EA9E
:10057C000303194300280BDB0901C9B200F16040E9
:10058C0000F5614080F8001330BC70470023E5E7AC
:10059C0000F00F000901C9B2024B1954F4E700BF77
:1005AC0000ED00E014ED00E0002807DB00F01F0276
:1005BC00400901239340024A42F82030704700BFA3
:1005CC0000E100E00138B0F1807F0AD2064B5860A0
:1005DC00064AF02182F823100020986007221A6046
:1005EC0070470120704700BF10E000E000ED00E014
:1005FC00F0B482B00026324668E0002D00F09780FF
:10060C00012D00D1CE68FF2B00F2A5808446FF2B74
:10061C0000F2A4809500DCF800400F27AF4024EADC
:10062C00070406FA05F52C43CCF800404C6814F08E
:10063C00805F4AD05C4CA56945F00105A561A469B1
:10064C0004F001040194019C9508AF1C574C54F81C
:10065C00274002F00307BF004FF00F0C0CFA07FC09
:10066C0024EA0C0C524CA0427ED004F58064A042CB
:10067C007CD004F58064A04274D00324BC4044EACE
:10068C000C040235494F47F825404C6814F4803F60
:10069C006ED0484D2C681C432C604C6814F4003F01
:1006AC006CD0444D6C681C436C604C6814F4801F17
:1006BC006AD0404DAC681C43AC604C6814F4001F0D
:1006CC0068D03C4DEC682343EB6001320B6833FA85
:1006DC0002F465D00124944023409C42F5D14D682E
:1006EC00122D2ED009D8022D28D086D9032D2ED02C
:1006FC00112D88D1CE68043685E72F4FBD4216D018
:10070C000CD92E4FBD4212D007F58037BD420ED00A
:10071C00A7F58017BD427FF476AF08E0A7F58017E8
:10072C00BD4204D007F58037BD427FF46CAF8D68B5
:10073C007DB1012D08D04461082664E7CE680836E7
:10074C0061E7CE680C365EE7046108265BE700269D
:10075C0059E7042657E700F1040C58E7A2F1080505
:10076C00AD0058E7022489E7002487E7012485E7D8
:10077C00104D2C6824EA03042C608EE70D4D6C6838
:10078C0024EA03046C6090E70A4DAC6824EA030485
:10079C00AC6092E7074DEC6824EA0303EB6094E746
:1007AC0002B0F0BC704700BF0010024000000140D6
:1007BC00000801400004014000002110000031102D
:1007CC0070B512F4804F42D00468B4F850300D78F4
:1007DC0003EBC503023304EB4303B3F80044C4F347
:1007EC0009048B69A34228D31B1B8B618B697BB9D2
:1007FC00066836F825309BB223F4804323F070034F
:10080C0083F4005343F4004343F0800326F825306F
:10081C0012F0400F0ED002680D7832F825309BB2E2
:10082C0023F4E04323F0700343F4004343F0C0038C
:10083C0022F8253024B9204670BD00238B61D5E702
:10084C0023460A894969006802F0AEFAF3E70468A6
:10085C00B4F850300D7803EBC503063304EB4303B7
:10086C00B3F80044C4F309048B69A3422ED31B1BB9
:10087C008B618B697BB9066836F825309BB223F403
:10088C00804323F0700383F4005343F4004343F09C
:10089C00800326F8253012F0400F0ED102680D7837
:1008AC0032F825309BB223F4E04323F0700343F479
:1008BC00004343F0C00322F82530002CBBD0234664
:1008CC004A894969006802F06FFAB4E700238B612A
:1008DC00CFE7F0B587B000287FD0044690F8A93256
:1008EC00D3B1032384F8A932206801F010FB25460C
:1008FC0055F8107B6E460FCD0FC62B683360231D49
:10090C000ECB384601F0F3FA58B1022384F8A93221
:10091C000125284607B0F0BD80F8A83203F0DCF8BA
:10092C00DFE70021206801F0FCFA00231AE0581CD4
:10093C0081000D18EA002244012555700D18EA00BB
:10094C00A3549D00EE18F2002244D3860144CE003D
:10095C0026440021F1709163D1632B44DA002244C8
:10096C001164C3B26568AB42E1D3002315E0980073
:10097C00C118CA002244002182F8691182F868313A
:10098C0082F86B11C2F87811C2F87C11C218D00031
:10099C002044C0F880110133DBB29D42E7D82546D4
:1009AC0055F8107B6E460FCD0FC62B683360231D98
:1009BC000ECB384601F0B7FA054620B1022384F875
:1009CC00A9320125A5E7002384F82430012384F8FB
:1009DC00A932206801F0BAFD9BE7012599E738B5EB
:1009EC0090F8A832012B11D00446012580F8A852AA
:1009FC00006801F083FA2946204603F06CF9206860
:100A0C0001F0A2FD002084F8A80238BD0220FCE70A
:100A1C0070B505460C46164612F0400F00F0FD80EE
:100A2C000268B2F85030097803EBC103023302EBD1
:100A3C004303B3F80024C2F30902A36993424AD9D1
:100A4C009B1AA361A369002B60D16378002B45D15D
:100A5C002B68B3F85020134403EB0111B1F80434A4
:100A6C009BB223F4F8439BB2A1F80434B1F80434DC
:100A7C0043F40043A1F804342B686278002A39D17E
:100A8C00B3F850201344227803EB0213B3F80C2470
:100A9C0092B222F4F84292B2A3F80C24B3F80C24CC
:100AAC0042F40042A3F80C242178284603F048F8BD
:100ABC0016F4804F3FD02A68217832F821309BB24F
:100ACC0023F4E04323F0700343F4404343F08003EA
:100ADC0022F821302FE00023A361B3E7012BCBD107
:100AEC002B68B3F85020134403EB01110023A1F839
:100AFC000434C1E7012AD7D1B3F85020134422782B
:100B0C0003EB02130022A3F80C24CDE716F4804F5C
:100B1C000DD0286830F821309BB223F4E04323F049
:100B2C00700343F4404343F0800320F8213094F8E1
:100B3C002430012B12D02A68217832F821309BB254
:100B4C0023F4E04323F0400383F0300343F40043E9
:100B5C0043F0800322F82130002070BD63691344F8
:100B6C006361E3691344E361216A236999421BD3EE
:100B7C00C91A21626278002A3BD12A68B2F8501057
:100B8C000A44217802EB0112D3B9B2F8041489B2E9
:100B9C0021F4F84189B2A2F80414B2F8041441F417
:100BAC000041A2F8041426E021B9002384F8243073
:100BBC001346DFE7002384F8243023620B46D9E781
:100BCC003E2B09D8590813F0010F00D001318902CE
:100BDC0089B2A2F804140EE0590913F01F0F00D1CA
:100BEC0001396FEAC1616FEA514189B2A2F804146C
:100BFC0001E0012A06D09BB222896169286801F0C4
:100C0C00ACFC98E72A68B2F850100A44217802EB41
:100C1C00011299B2A2F80414EDE70268B2F8503050
:100C2C00097803EBC103063302EB4303B3F800244A
:100C3C00C2F30902A36993424BD39B1AA361A36924
:100C4C00002B61D16378002B46D12B68B3F8502070
:100C5C00134403EB0111B1F804349BB223F4F843B1
:100C6C009BB2A1F80434B1F8043443F40043A1F866
:100C7C0004342B686278002A3AD1B3F8502013441C
:100C8C00227803EB0213B3F80C2492B222F4F8424C
:100C9C0092B2A3F80C24B3F80C2442F40042A3F84B
:100CAC000C242178284602F04BFF16F4804F7FF479
:100CBC0042AF2A68217832F821309BB223F4E0430A
:100CCC0023F0700343F4404343F0800322F82130B7
:100CDC0031E70023A361B2E7012BCAD12B68B3F82B
:100CEC005020134403EB01110023A1F80434C0E796
:100CFC00012AD6D1B3F850201344227803EB021307
:100D0C000022A3F80C24CCE716F4804F0DD12868F0
:100D1C0030F821309BB223F4E04323F0700343F40A
:100D2C00404343F0800320F8213094F82430012B09
:100D3C007FF401AF636913446361E3691344E361B6
:100D4C00216A236999421BD3C91A21622A686178E6
:100D5C0000293AD1B2F850100A44217802EB011262
:100D6C00D3B9B2F80C1489B221F4F84189B2A2F8C3
:100D7C000C14B2F80C1441F40041A2F80C1426E047
:100D8C0021B9002384F824301346DFE700232362C3
:100D9C0084F824300B46D9E73E2B09D8590813F0B8
:100DAC00010F00D00131890289B2A2F80C140EE0B7
:100DBC00590913F01F0F00D101396FEAC1616FEAB5
:100DCC00514189B2A2F80C1401E0012906D09BB262
:100DDC0062896169286801F0C0FBACE6B2F850107A
:100DEC000A44217802EB011299B2A2F80C14EEE736
:100DFC002DE9F04104462068B0F8443013F4004F5C
:100E0C0000F00182B0F844309BB213F00F0540F0B3
:100E1C00D18013F0100F5CD003889BB213F4006FD9
:100E2C0040F08D8013F4004FE5D0038823F070035D
:100E3C001B051B0D43F0800303802068B0F8503075
:100E4C0094F8682103EBC203063300EB4303B3F8B9
:100E5C000034C3F30903C4F884318BB1D4F87C118A
:100E6C0071B1B4F86E2101F09FFFD4F88421D4F84D
:100E7C007C311344C4F87C310021204602F054FE2E
:100E8C0023681A8812F4006FB5D1B3F850201344BC
:100E9C00D4F87821002A74D1B3F80C2492B222F43D
:100EAC00F84292B2A3F80C24B3F80C2442F400429A
:100EBC00A3F80C24226813889BB223F4804323F0FC
:100ECC00700383F4405343F4004343F080031380D6
:100EDC0091E703889BB223F4E14323F070036FEA9C
:100EEC0043436FEA53439BB203802268B2F85030FD
:100EFC0094F8281003EBC103023302EB4303B3F85D
:100F0C000034C3F309036364E26B1344E36300210D
:100F1C00204602F015FE94F82430002B3FF46BAF02
:100F2C00236C002B7FF467AF94F82430226843F0D5
:100F3C008003A2F84C30002384F824305BE7B0F82F
:100F4C00503094F8682103EBC203063300EB4303E3
:100F5C00B3F80034C3F30903C4F88431B4F86E2138
:100F6C0004F52C7101F020FF2268138823F0700324
:100F7C001B051B0D43F080031380204602F0CCFDB3
:100F8C0039E73E2A09D8510812F0010F00D001317F
:100F9C008A0292B2A3F80C248CE7510912F01F0FAD
:100FAC0000D101396FEAC1626FEA524292B2A3F8E2
:100FBC000C247FE730F82560B6B216F4004F50D100
:100FCC0016F0800F3FF417AF681C82001318D9007D
:100FDC002144276837F825309BB223F4E14323F0F2
:100FEC0070036FEA43436FEA53439BB227F82530F3
:100FFC00CB78032B07D033B1022B40F0FF8016F4D3
:10100C00807F40F0FB802068B0F850306A1C02EB07
:10101C008202D600A25D03EBC203023300EB430352
:10102C00B3F80034C3F3090305EB8506F20016464A
:10103C002244126C9A4240F2CD802644D21A326479
:10104C0005EB8506F2002244126C002A40F0C980A0
:10105C00013505EB8505EB00E15C204602F070FDE7
:10106C00C9E630F8253023F070031B051B0D43F047
:10107C00800320F82530AB005A194FEAC2084246CB
:10108C0008F5B478A044224492F87431002B3FD177
:10109C002068B0F8503005EB8501CA001146224497
:1010AC0092F8682103EBC203063300EB4303B3F859
:1010BC000074C7F3090717BBAA002A44D3002344C2
:1010CC00D3F884213A44C3F88421D3F87C213A44E0
:1010DC00C3F87C21D3F880313BB105EB8502D300FA
:1010EC002344D3F878319F426FD205EB8502D300AD
:1010FC00234493F86811204602F016FD60E7214462
:10110C003B46B1F86E21D1F87C1101F04DFED3E7CE
:10111C0005EB8502D300234493F86B31022B34D0BA
:10112C002168AB002B44DA00224492F8680131F8B4
:10113C0020309BB223F4E04323F0700343F40043CC
:10114C0043F0C00321F82030206892F8682130F871
:10115C00223013F4804F1FD0B0F8503003EBC20391
:10116C00023300EB4303B3F80074C7F30907002FF5
:10117C00A2D0AB002B44D90021443B46B1F87021DE
:10118C00D1F87C1101F010FE96E73246414620461C
:10119C00FFF716FB07468FE7B0F8503003EBC2039E
:1011AC00063300EB4303B3F80074C7F30907002FB1
:1011BC0082D0AB002B44D90021443B46B1F87221BC
:1011CC00D1F87C1101F0F0FD76E74146206801F082
:1011DC00D9F9F5E605EB8506F200224400261664E3
:1011EC002EE7AE007719FA002244D76B1F44D76361
:1011FC00556C2B44536401F0C5F9FCE5324620468E
:10120C00FFF706FCF7E50020BDE8F08190F8A83266
:10121C00012B0DD010B50446012380F8A83280F8BC
:10122C002410006801F08AF9002084F8A80210BD8F
:10123C000220704710B584B00446006801F088F9AC
:10124C0010F4004F47D1206801F082F910F4806F40
:10125C0045D1206801F07CF910F4804F08D0226849
:10126C00B2F844309BB223F480439BB2A2F84430D2
:10127C00206801F06DF910F4005F08D02268B2F814
:10128C0044309BB223F400539BB2A2F84430206844
:10129C0001F05EF910F4805F32D1206801F058F94A
:1012AC0010F4006F77D1206801F052F910F4007F30
:1012BC0040F09A80206801F04BF910F4807F08D040
:1012CC002268B2F844309BB223F480739BB2A2F82C
:1012DC00443004B010BD2046FFF78AFDB3E7226806
:1012EC00B2F844309BB223F480639BB2A2F8443032
:1012FC00204602F036FC00212046FFF787FFA8E7C6
:10130C002268B2F840309BB223F004039BB2A2F8DF
:10131C0040302268B2F840309BB223F008039BB2F5
:10132C00A2F84030204602F03DFC2268B2F844306E
:10133C009BB223F480539BB2A2F84430ADE72268F1
:10134C0032F8231004AA02EB430222F8101C0133DA
:10135C00DBB2072BF3D92268B2F8403043F001031B
:10136C00A2F840302268B2F840309BB223F001035F
:10137C009BB2A2F840302368B3F8442012F4806F7B
:10138C00F9D0B3F8442092B222F4806292B2A3F85E
:10139C00442000230BE00023DBE7226804A901EBC7
:1013AC00430131F8101C22F823100133DBB2072B58
:1013BC00F3D92268B2F8403043F00803A2F8403069
:1013CC002268B2F844309BB223F400639BB2A2F8BB
:1013DC0044302268B2F8403043F00403A2F84030A5
:1013EC00204602F0CFFB5EE72268B2F844309BB295
:1013FC0023F400739BB2A2F84430204602F0ABFBFE
:10140C0058E7F8B511F0800F26D101F00705AE00B2
:10141C007719FC00274604F5B474044407440025EE
:10142C0087F8695101F0070121702261E37062783D
:10143C0002B1E181022B19D090F8A832012B18D0FF
:10144C000546012380F8A8322146006800F07EFD95
:10145C00002085F8A802F8BD01F007056E1CB50048
:10146C00AF19FC00044401256570DBE700232371F0
:10147C00E2E70220EFE738B511F0800F20D101F040
:10148C000704A2001519EB001D4603F5B4730344C1
:10149C002C460444002284F8692101F007011970DC
:1014AC0090F8A822012A15D00446012280F8A8221F
:1014BC001946006800F0E2FE002084F8A80238BD4E
:1014CC0001F00702541CA2001519EB000344012281
:1014DC005A70E2E70220F2E7F8B501F00705AE001A
:1014EC007119CC0004F5B47401197719FC0004448B
:1014FC00C4F87C21C4F880310023C4F8843184F80A
:10150C00693184F8685125B1006801F03BF800207E
:10151C00F8BD006801F036F8F9E7F8B501F00706F8
:10152C00771CBD00EC19E10001444FEA860CB44471
:10153C004FEACC040444E2632364012284F84C2077
:10154C00A36400236364EC19E3001C464A7006553F
:10155C0026B1006801F016F80020F8BD006801F013
:10156C0011F8F9E738B501F0070543689D4230D80A
:10157C0011F0800F1FD18A005418E3001C4603F5AC
:10158C00B473034422460244002182F869110122FB
:10159C009A701D7090F8A822012A1CD004460122D2
:1015AC0080F8A8221946006800F052FF5DB10020B7
:1015BC0084F8A8020EE06C1CA2001119CB000344A5
:1015CC0001225A70E3E704F52C71206800F0C3FF88
:1015DC00EDE7012038BD0220FCE738B501F00F0221
:1015EC0043689A422FD811F0800F22D101F00704E2
:1015FC00A3001D19EA00154602F5B47202442C46EC
:10160C000444002384F869310023937001F007032C
:10161C00137090F8A832012B17D00446012380F8E0
:10162C00A8321146006800F038FF002084F8A802A8
:10163C000AE001F007035C1CA3001D19EA00024438
:10164C0001235370E0E7012038BD0220FCE710B401
:10165C0011F0800F0FD001F00701013101EB810176
:10166C00CC00204472B10122027303811B0C438114
:10167C00002010BC704701EB8101CC0004F5B47460
:10168C002044EFE70273C380F2E7000082B0084BFE
:10169C001B68084AA2FB03235B0A00FB03F00190C2
:1016AC0000BF019B5A1E0192002BF9D102B070476A
:1016BC0000000020D34D6210002800F0F58170B5B9
:1016CC0082B00446036813F0010F2CD0AB4B5B685F
:1016DC0003F00C03042B1DD0A84B5B6803F00C0328
:1016EC00082B12D06368B3F5803F41D0002B55D145
:1016FC0003F1804303F504331A6822F480321A6034
:10170C001A6822F480221A6037E09C4B5B6813F451
:10171C00803FE7D0994B1B6813F4003F03D06368FC
:10172C00002B00F0C381236813F0020F76D0934B8B
:10173C005B6813F00C0F5FD0904B5B6803F00C03ED
:10174C00082B54D02369002B00F08A808C4B01228B
:10175C001A60FEF7C9FE0546884B1B6813F0020F92
:10176C0075D1FEF7C1FE401B0228F5D90320A0E17C
:10177C00824A136843F480331360636843B3FEF703
:10178C00B3FE05467D4B1B6813F4003FCBD1FEF72F
:10179C00ABFE401B6428F5D903208AE1B3F5A02FDA
:1017AC0009D0764B1A6822F480321A601A6822F437
:1017BC0080221A60E1E703F18043A3F53C331A68F9
:1017CC0042F480221A601A6842F480321A60D4E71C
:1017DC00FEF78AFE0546694B1B6813F4003FA2D046
:1017EC00FEF782FE401B6428F5D9032061E1634BB0
:1017FC005B6813F4803FA5D1604B1B6813F0020F9C
:10180C0004D02369012B01D0012052E15B4A1368FB
:10181C0023F0F803616943EAC1031360236813F0F2
:10182C00080F32D0A369002B5BD0564B01221A60F3
:10183C00FEF75AFE0546514B5B6A13F0020F21D19D
:10184C00FEF752FE401B0228F5D9032031E14B4A2A
:10185C00136823F0F803616943EAC1031360DDE701
:10186C00474B00221A60FEF73FFE0546434B1B68B0
:10187C0013F0020FD2D0FEF737FE401B0228F5D929
:10188C00032016E10120FFF701FF236813F0040F7A
:10189C0000F09880394BDB6913F0805F33D1374B04
:1018AC00DA6942F08052DA61DB6903F0805301930C
:1018BC00019B0125344B1B6813F4807F25D0E36812
:1018CC00012B36D0002B4CD103F1804303F50433AC
:1018DC001A6A22F001021A621A6A22F004021A62CF
:1018EC002CE0284B00221A60FEF7FEFD0546234B28
:1018FC005B6A13F0020FC8D0FEF7F6FD401B0228FE
:10190C00F5D90320D5E00025D4E71F4A136843F42A
:10191C0080731360FEF7E8FD06461B4B1B6813F43F
:10192C00807FCCD1FEF7E0FD801B6428F5D9032025
:10193C00BFE0124A136A43F001031362E3687BB3FE
:10194C00FEF7D2FD06460D4B1B6A13F0020F38D181
:10195C00FEF7CAFD801B41F288339842F3D903206D
:10196C00A7E0052B12D0054B1A6A22F001021A626D
:10197C001A6A22F004021A62E0E700BF001002406B
:10198C000000424280044242007000404C4B1A6AF4
:10199C0042F004021A621A6A42F001021A62CDE79E
:1019AC00FEF7A2FD0646464B1B6A13F0020F08D049
:1019BC00FEF79AFD801B41F288339842F3D903203D
:1019CC0077E0E5B9E369002B72D03D4A526802F02A
:1019DC000C02082A56D0022B17D03A4B00221A6060
:1019EC00FEF782FD0446364B1B6813F0007F47D090
:1019FC00FEF77AFD001B0228F5D9032059E0304A86
:101A0C00D36923F08053D361DCE72E4B00221A609C
:101A1C00FEF76AFD05462A4B1B6813F0007F06D0C3
:101A2C00FEF762FD401B0228F5D9032041E0236A32
:101A3C00B3F5803F1AD022494B6823F47413226A01
:101A4C00606A024313434B601E4B01221A60FEF77F
:101A5C004BFD04461A4B1B6813F0007F0ED1FEF7AA
:101A6C0043FD001B0228F5D9032022E0144A5368D9
:101A7C0023F40033A1680B435360DCE7002018E02B
:101A8C00002016E0012B16D00D4B5B6803F480315F
:101A9C00226A914201D001200BE003F47013626AB8
:101AAC0093420AD0012004E001207047012000E09D
:101ABC00002002B070BD0120FBE70020F9E700BF59
:101ACC00001002406000424210B487B0164C94E8FB
:101ADC000F000DF1180C0CE90F00238AADF804303F
:101AEC00124B5B6803F00C02082A1AD1C3F3834231
:101AFC00624412F8102C13F4803F05D10C4800FB03
:101B0C0002F007B010BC7047084B5B68C3F340434E
:101B1C00634413F8143C074800FB02F0B0FBF3F0ED
:101B2C00EFE70448EDE700BFA83D000800100240B5
:101B3C0000093D0000127A00002800F0A38070B567
:101B4C000446524B1B6803F007038B420CD24F4ADE
:101B5C00136823F007030B431360136803F00703A8
:101B6C008B4201D0012070BD236813F0020F17D0F7
:101B7C0013F0040F04D0464A536843F4E0635360F7
:101B8C00236813F0080F04D0414A536843F46053A0
:101B9C0053603F4A536823F0F003A068034353603B
:101BAC000D46236813F0010F31D06368012B20D050
:101BBC00022B25D0364A126812F0020F64D0344939
:101BCC004A6822F0030213434B60FEF78DFC064675
:101BDC002F4B5B6803F00C036268B3EB820F16D0DB
:101BEC00FEF782FC801B41F288339842F0D9032027
:101BFC00B9E7274A126812F4003FE0D10120B2E79E
:101C0C00234A126812F0007FD9D10120ABE71F4B99
:101C1C001B6803F00703AB420CD91C4A136823F072
:101C2C0007032B431360136803F00703AB4201D087
:101C3C00012098E7236813F0040F06D0144A536868
:101C4C0023F4E063E1680B435360236813F0080F3F
:101C5C0007D00F4A536823F46053216943EAC10348
:101C6C005360FFF731FF0A4B5B68C3F30313094A58
:101C7C00D35CD840084B1860084B1868FEF7F2FB91
:101C8C00002070E70120704701206CE70020024023
:101C9C0000100240903D00080000002008000020C9
:101CAC00014B1868704700BF0000002008B5FFF713
:101CBC00F7FF044B5B68C3F30223034AD35CD840A1
:101CCC0008BD00BF00100240A03D000808B5FFF79A
:101CDC00E7FF044B5B68C3F3C223034AD35CD840D1
:101CEC0008BD00BF00100240A03D000870B582B0D6
:101CFC000446036813F0010F34D03E4BDB6913F03C
:101D0C00805F48D13B4BDA6942F08052DA61DB6983
:101D1C0003F080530193019B0125374B1B6813F48F
:101D2C00807F3AD0334B1B6A13F4407311D0626836
:101D3C0002F440729A420CD02E4A136A23F440707B
:101D4C002E4901260E6000260E60106213F0010F62
:101D5C0037D1284A136A23F4407361680B4313622A
:101D6C00002D3FD1236813F0020F06D0214A53688F
:101D7C0023F44043A1680B435360236813F0100F06
:101D8C0035D01C4A536823F48003E1680B4353603D
:101D9C00002002B070BD0025BFE7174A136843F45A
:101DAC0080731360FEF7A0FB0646134B1B6813F4FD
:101DBC00807FB7D1FEF798FB801B6428F5D90320F0
:101DCC00E7E7FEF791FB06460A4B1B6A13F0020F7E
:101DDC00BFD1FEF789FB801B41F288339842F3D9BF
:101DEC000320D6E7D36923F08053D361BAE70020F0
:101DFC00CFE700BF00100240007000404004424298
:101E0C0038B504460268136923F44053C1680B4388
:101E1C00136183680269134342691A430168CB68F2
:101E2C0023F4B05323F00C031343CB6002685369C3
:101E3C0023F4407381690B4353610268124B9A423D
:101E4C001FD0FFF733FF00EB800000EB80006368CE
:101E5C009B00B0FBF3F00D4DA5FB00325109642241
:101E6C0002FB110213013233A5FB03235B0903F0C0
:101E7C00F00202EB011203F00F03216813448B6094
:101E8C0038BDFFF723FFDEE7003801401F85EB511B
:101E9C0058B310B5044690F83D300BB3242384F8A6
:101EAC003D302268D36823F40053D3602046FFF7FB
:101EBC00A7FF2268136923F49043136122685369C6
:101ECC0023F02A0353612268D36843F40053D36090
:101EDC0000202064202384F83D3084F83E3010BD6F
:101EEC0080F83C30FEF76CFAD8E70120704784B0DC
:101EFC0001A880E80E00002004B070470023A0F871
:101F0C0044304FF43F42A0F8402018467047B0F8D8
:101F1C00403023F47C535B045B0CA0F84030002071
:101F2C0070470020704784B010B402AC84E80E00F7
:101F3C000123A0F840300023A0F84030A0F8443032
:101F4C00A0F85030184610BC04B0704730B40346AB
:101F5C000C7830F8242092B222F4EC4222F0700279
:101F6C0092B2C87803285AD8DFE800F04D550251D8
:101F7C00002048F280052A4323F824200C7833F8FB
:101F8C00242092B222F4E04222F0700222432A432F
:101F9C0023F824200A7B002A40F0B1804A78002ADA
:101FAC004ED0B3F850201A440C7802EB0412CC88B3
:101FBC0064086400A2F800440C7833F8242012F072
:101FCC00400F0CD033F8242092B222F4E04222F0DD
:101FDC00700242F4004242F0C00223F82420CA7876
:101FEC00012A1ED0097833F8212092B222F4E04263
:101FFC0022F0400282F0200242F4004242F08002C1
:10200C0023F8212060E042F400720020B1E742F492
:10201C00C0620020ADE742F480620020A9E70120F5
:10202C00A7E7097833F8212092B222F4E04222F09B
:10203C00400242F4004242F0800223F8212043E0A7
:10204C00B3F850201A440C7802EB0412CC886408C4
:10205C006400A2F80844B3F850201A440C7802EB40
:10206C0004120C6994BBB2F80C44A4B224F4F844E6
:10207C00A4B2A2F80C44B2F80C4444F40044A2F804
:10208C000C440C7833F8242012F4804F0CD033F825
:10209C00242092B222F4E04222F0700242F4404238
:1020AC0042F0800223F82420097833F8212092B2E0
:1020BC0022F4804222F0700282F4405242F4004238
:1020CC0042F0800223F8212030BC70473E2C09D806
:1020DC00650814F0010F00D00135AD02ADB2A2F8C5
:1020EC000C54CEE7650914F01F0F00D1013D6FEAC7
:1020FC00C5646FEA5444A4B2A2F80C44C1E70C784E
:10210C0033F8242092B222F4E04222F0700242F41E
:10211C00014242F0800223F82420B3F850201A44E4
:10212C000C7802EB04120C8964086400A2F80044D9
:10213C00B3F850201A440C7802EB04124C89640852
:10214C006400A2F808444A78002A40D10C7833F88D
:10215C00242012F4804F0CD033F8242092B222F4B5
:10216C00E04222F0700242F4404242F0800223F836
:10217C0024200C7833F8242012F0400F0CD033F8C4
:10218C00242092B222F4E04222F0700242F4004287
:10219C0042F0C00223F824200D7833F8252092B2A7
:1021AC0022F4804222F0700282F4405248F2800401
:1021BC00224323F82520097833F8212092B222F407
:1021CC00E04222F04002224323F821207CE70C78E5
:1021DC0033F8242012F4804F0CD033F8242092B220
:1021EC0022F4E04222F0700242F4404242F08002BB
:1021FC0023F824200C7833F8242012F0400F0CD054
:10220C0033F8242092B222F4E04222F0700242F41D
:10221C00004242F0C00223F82420CA78012A1ED0C2
:10222C000C7833F8242092B222F4E04222F04002DF
:10223C0082F0200242F4004242F0800223F8242073
:10224C00097833F8212092B222F4804222F07002F5
:10225C0042F4004242F0800223F8212034E70C784B
:10226C0033F8242092B222F4E04222F0400242F4ED
:10227C00004242F0800223F82420E1E70B7B002B84
:10228C0046D14B7813B30A7830F8223013F0400F54
:10229C000CD030F822309BB223F4E04323F07003CF
:1022AC0043F4004343F0C00320F822300A7830F89E
:1022BC0022309BB223F4E04323F0400343F4004369
:1022CC0043F0800320F82230002070470A7830F861
:1022DC00223013F4804F0CD030F822309BB223F410
:1022EC00E04323F0700343F4404343F0800320F8B1
:1022FC0022300A7830F822309BB223F4804323F04A
:10230C00700343F4004343F0800320F82230DBE7F2
:10231C0010B44B78002B4ED10A7830F8223013F4DD
:10232C00804F0CD030F822309BB223F4E04323F0E2
:10233C00700343F4404343F0800320F822300A78C2
:10234C0030F8223013F0400F0CD030F822309BB212
:10235C0023F4E04323F0700343F4004343F0C00341
:10236C0020F822300A7830F822309BB223F4E04374
:10237C0023F0700343F4004343F0C00320F82230F1
:10238C000B7830F8232092B222F4804222F07002B3
:10239C0048F28004224320F823200A7830F82230B7
:1023AC009BB223F4E04323F04003234320F8223074
:1023BC00002010BC70470A7830F8223013F4804F9C
:1023CC000CD030F822309BB223F4E04323F070039E
:1023DC0043F4404343F0800320F822300A7830F86D
:1023EC00223013F0400F0CD030F822309BB223F483
:1023FC00E04323F0700343F4004343F0C00320F8A0
:10240C0022300A7830F822309BB223F4E04323F0D8
:10241C00700343F4404343F0800320F822300B78E0
:10242C0030F8232092B222F4E04222F0400248F22B
:10243C008004224320F823200A7830F822309BB203
:10244C0023F4804323F07003234320F82230AFE7BA
:10245C004B788BB90A7830F822309BB223F4804346
:10246C0023F0700383F4805343F4004343F0800360
:10247C0020F82230002070470A7830F822309BB2C6
:10248C0023F4E04323F0400383F0100343F40043B0
:10249C0043F0800320F82230ECE70B7B002B4BD170
:1024AC004B7833B30A7830F8223013F0400F0CD04D
:1024BC0030F822309BB223F4E04323F0700343F452
:1024CC00004343F0C00320F82230CB78012B33D0EB
:1024DC000A7830F822309BB223F4E04323F0400317
:1024EC0083F0200343F4004343F0800320F82230B0
:1024FC0022E00A7830F8223013F4804F0CD030F8F8
:10250C0022309BB223F4E04323F0700343F44043A6
:10251C0043F0800320F822300A7830F822309BB246
:10252C0023F4804323F0700383F4405343F40043BB
:10253C0043F0800320F822300020704711B980232B
:10254C00A0F84C30002070470020704700207047E6
:10255C00B0F8440070470020704701335B0800EB73
:10256C00420202F5806263B110B40C78487844EAF8
:10257C00002422F8044B0231013B002BF5D110BC96
:10258C007047704770B54B78012B33D00A7B002A0B
:10259C0040F0FE828B690A69934240F2DC829B1AFE
:1025AC008B61B0F8503003440C7803EB0413002A11
:1025BC0040F0D582B3F80C2492B222F4F84292B2D5
:1025CC00A3F80C24B3F80C2442F40042A3F80C2416
:1025DC000A7830F822309BB223F4804323F0700346
:1025EC0083F4405343F4004343F0800320F822303B
:1025FC00002070BD8E690A69964200D916460C46B9
:10260C0005460B7B002B35D0CB78022B52D00A78A9
:10261C0030F822309BB223F4E04323F0700343F4F0
:10262C00014343F0800320F822300B6A9B1B0B62A2
:10263C000B7830F8232012F0400F00F007824A7814
:10264C00002A40F0AE81B0F85020024402EB031394
:10265C00002E40F08D81B3F80C2492B222F4F84293
:10266C0092B2A3F80C24B3F80C2442F40042A3F861
:10267C000C2498E1B6B23346CA884969FFF76DFF5E
:10268C00B5F850302B44227803EB0213A3F8046402
:10269C00227835F822309BB223F4E04323F0400338
:1026AC0083F0300343F4004343F0800325F82230D9
:1026BC0000209EE70B6A9A4280F03E810A7830F83F
:1026CC0022309BB223F4E04323F0700343F4014324
:1026DC0043F0800320F822300B6A9B1B0B620B78B3
:1026EC0030F8232012F0400F00F093804A786ABB38
:1026FC00B0F85020024402EB031376B9B3F80C2463
:10270C0092B222F4F84292B2A3F80C24B3F80C243F
:10271C0042F40042A3F80C241AE03E2E09D87208A9
:10272C0016F0010F00D00132920292B2A3F80C24E1
:10273C000EE0720916F01F0F00D1013A6FEAC26267
:10274C006FEA524292B2A3F80C2401E0012A27D07E
:10275C00B3B2628961692846FFF7FFFE63693344AF
:10276C006361236A2269934223D99B1B236263789A
:10277C00002B3BD1B5F850302B44227803EB0213DD
:10278C00DEB9B3F8042492B222F4F84292B2A3F860
:10279C000424B3F8042442F40042A3F8042427E0F0
:1027AC00B0F85020024402EB0313B2B2A3F80C248D
:1027BC00CEE7002222621E46D9E73E2E09D87208C7
:1027CC0016F0010F00D00132920292B2A3F8042449
:1027DC000EE0720916F01F0F00D1013A6FEAC262C7
:1027EC006FEA524292B2A3F8042401E0012B06D006
:1027FC00B3B2228961692846FFF7AFFE48E7B5F806
:10280C0050302B44227803EB0213B2B2A3F8042409
:10281C00EEE74A786ABBB0F85020024402EB03138F
:10282C0076B9B3F8042492B222F4F84292B2A3F827
:10283C000424B3F8042442F40042A3F804241AE05C
:10284C003E2E09D8720816F0010F00D00132920208
:10285C0092B2A3F804240EE0720916F01F0F00D1F7
:10286C00013A6FEAC2626FEA524292B2A3F80424B0
:10287C0001E0012A27D0B3B2228961692846FFF70B
:10288C006CFE636933446361236A2269934223D9E2
:10289C009B1B23626378002B3BD1B5F850302B4443
:1028AC00227803EB0213DEB9B3F80C2492B222F4B3
:1028BC00F84292B2A3F80C24B3F80C2442F4004270
:1028CC00A3F80C2427E0B0F85020024402EB0313C9
:1028DC00B2B2A3F80424CEE7002222621E46D9E746
:1028EC003E2E09D8720816F0010F00D00132920268
:1028FC0092B2A3F80C240EE0720916F01F0F00D14F
:10290C00013A6FEAC2626FEA524292B2A3F80C2407
:10291C0001E0012B06D0B3B2628961692846FFF74A
:10292C001CFEB5E6B5F850302B44227803EB0213AD
:10293C00B2B2A3F80C24EEE7097830F8212092B259
:10294C0022F4E24222F0700242F4004242F0800291
:10295C0020F82120B0F850200244217802EB01121B
:10296C009BB2A2F8043422896169FFF7F6FD8FE669
:10297C003E2E09D8720816F0010F00D001329202D7
:10298C0092B2A3F80C240EE0720916F01F0F00D1BE
:10299C00013A6FEAC2626FEA524292B2A3F80C2477
:1029AC0001E0012A25D0B3B2628961692846FFF79C
:1029BC00D4FD636933446361236A2269934221D94C
:1029CC009B1B2362002E3FF463AE63785BBBB5F8B0
:1029DC0050302B44227803EB02133E2E16D872088B
:1029EC0016F0010F00D00132920292B2A3F8042427
:1029FC001BE0B0F85020024402EB0313B2B2A3F870
:102A0C000C24D0E7002222621E46DBE7720916F086
:102A1C001F0F00D1013A6FEAC2626FEA524292B2C2
:102A2C00A3F8042401E0012B06D0B3B2228961691A
:102A3C002846FFF792FD2BE6B5F850302B44227850
:102A4C0003EB0213B2B2A3F80424EEE74A786ABB94
:102A5C00B0F85020024402EB031376B9B3F8042407
:102A6C0092B222F4F84292B2A3F80424B3F80424EC
:102A7C0042F40042A3F804241AE03E2E09D872084E
:102A8C0016F0010F00D00132920292B2A3F8042486
:102A9C000EE0720916F01F0F00D1013A6FEAC26204
:102AAC006FEA524292B2A3F8042401E0012A25D025
:102ABC00B3B2228961692846FFF74FFD636933443D
:102ACC006361236A2269934221D99B1B2362002EE6
:102ADC003FF4DEAD63785BBBB5F850302B44227805
:102AEC0003EB02133E2E16D8720816F0010F00D01D
:102AFC000132920292B2A3F80C241BE0B0F85020E1
:102B0C00024402EB0313B2B2A3F80424D0E7002270
:102B1C0022621E46DBE7720916F01F0F00D1013A44
:102B2C006FEAC2626FEA524292B2A3F80C2401E03F
:102B3C00012B06D0B3B2628961692846FFF70DFDFF
:102B4C00A6E5B5F850302B44227803EB0213B2B251
:102B5C00A3F80C24EEE700228A611A4621E53E2AEE
:102B6C0009D8540812F0010F00D00134A402A4B209
:102B7C00A3F80C442CE5540912F01F0F00D1013CB2
:102B8C006FEAC4646FEA5444A4B2A3F80C441FE582
:102B9C00CA78022A04D0012A00F08E80012028E590
:102BAC00ABB9B0F8503003440A7803EB02130A694E
:102BBC003ABBB3F8042492B222F4F84292B2A3F8CE
:102BCC000424B3F8042442F40042A3F804244B7800
:102BDC00002B48D1B0F8503003440A7803EB0213B1
:102BEC000A693ABBB3F80C2492B222F4F84292B2BE
:102BFC00A3F80C24B3F80C2442F40042A3F80C24E0
:102C0C0033E03E2A09D8540812F0010F00D00134E9
:102C1C00A20292B2A3F80424D9E7540912F01F0FB0
:102C2C0000D1013C6FEAC4626FEA524292B2A3F83F
:102C3C000424CCE73E2A09D8540812F0010F00D026
:102C4C000134A20292B2A3F80C240EE0540912F043
:102C5C001F0F00D1013C6FEAC4626FEA524292B27C
:102C6C00A3F80C2401E0012B1CD0CB69002B3FF402
:102C7C00AFAC0A7830F8223044F240042340A3422F
:102C8C0002D0002B7FF4A4AC30F822309BB223F49A
:102C9C00E04323F0700343F4004343F0C00320F8F7
:102CAC00223095E4B0F8503003440A7803EB021359
:102CBC000A8AA3F80C24D8E78C690A69944230D9A3
:102CCC00A41A8C61A3B9B0F8503003440C7803EB10
:102CDC00041352BBB3F80444A4B224F4F844A4B2D1
:102CEC00A3F80444B3F8044444F40044A3F80444A3
:102CFC004B78002B4BD1B0F8503003440C7803EBDD
:102D0C0004135ABBB3F80C2492B222F4F84292B2D8
:102D1C00A3F80C24B3F80C2442F40042A3F80C24BE
:102D2C0056E400228A612246CCE73E2A09D8540890
:102D3C0012F0010F00D00134A402A4B2A3F8044491
:102D4C00D6E7540912F01F0F00D1013C6FEAC4649E
:102D5C006FEA5444A4B2A3F80444C9E73E2A09D844
:102D6C00540812F0010F00D00134A20292B2A3F861
:102D7C000C242DE4540912F01F0F00D1013C6FEA12
:102D8C00C4626FEA524292B2A3F80C2420E4012BE5
:102D9C007FF41EACB0F8503003440C7803EB0413F2
:102DAC0092B2A3F80C2413E430B45D0800EB420299
:102DBC0002F5806207E032F8044BA4B20C70240ACE
:102DCC004C700231013D002DF5D113F0010F01D0F3
:102DDC0013880B7030BC7047222303800048704767
:102DEC000C00002022230380004870473000002094
:102DFC00222303800048704754000020D0F8B832DA
:102E0C0000201873704700000A23038000487047A5
:102E1C007800002010B582B0D0F8B8420023ADF88D
:102E2C0006300B7813F0600325D0202B75D14B782E
:102E3C00023B092B1BD8DFE803F014091A1A1A1AE3
:102E4C001A1A0F058B782360002069E001222146B5
:102E5C0000F052FD002063E04B881B0A63600020E9
:102E6C005EE00122211D00F047FD002058E000F03B
:102E7C0022FA022054E04B780B2B4AD8DFE803F0FF
:102E8C00064949494949154949492E3D90F89C3212
:102E9C00032B06D102220DF1060100F02DFD0020BE
:102EAC003EE000F008FA02203AE04B881B0A222B85
:102EBC000AD0212B0ED1CA88092A28BF0922194908
:102ECC0000F01AFD00202BE0CA883F2A28BF3F22C1
:102EDC001549F5E700F0EFF9022021E090F89C325B
:102EEC00032B06D1012204F1080100F005FD00209E
:102EFC0016E000F0E0F9022012E090F89C32032B6F
:102F0C0003D18B78A36000200AE000F0D4F90220F2
:102F1C0006E000F0D0F9022002E000F0CCF902202B
:102F2C0002B010BDC40000208400002010B504467F
:102F3C00812100F084FE0023E362D4F8B80220B1B2
:102F4C0000F0C8FE0023C4F8B832002010BD10B544
:102F5C00044604230322812100F066FE0123E36270
:102F6C00102000F0B3FEC4F8B80218B100230373AC
:102F7C00184610BD0220FCE738B5D0F8B85290F8CE
:102F8C009C42032C01D0002038BD2B7B002BFAD1A6
:102F9C0013460A4601212973812100F087FEF2E7CE
:102FAC0098B108B50346D0F8B40210B10020C3F8AC
:102FBC00B40209B1C3F8B0121846012380F89C3250
:102FCC00027000F0F5FD002008BD0220704719B119
:102FDC00C0F8B412002070470220704708B500F00A
:102FEC001BFE002008BD08B5D0F8B43233B11B6805
:102FFC00984708B9002008BD0220FCE70220FAE738
:10300C0008B5D0F8B4325B689847002008BD38B5D5
:10301C00044600F52A75284600F039F90123C4F856
:10302C009432B4F8AE32C4F8983294F8A81201F085
:10303C001F03012B0ED03BB1022B10D001F08001ED
:10304C00204600F004FE03E02946204600F0CDFAAD
:10305C00002038BD2946204600F0FBFAF8E7294647
:10306C00204600F026FBF3E738B50446A1BB10461A
:10307C00D4F89432032B03D0052B24D0002037E056
:10308C00D4F86031D4F8642193420DD99B1AC4F85A
:10309C0060319A4206D99AB20146204600F041FCB2
:1030AC00002025E092B2F7E7D4F8B4321B692BB1BB
:1030BC0094F89C22032A01D120469847204600F020
:1030CC0038FC002014E00025C4F894522946204610
:1030DC0000F0BDFD28460BE00A46D0F8B4329B69DF
:1030EC003BB190F89C12032905D11146984700205A
:1030FC0038BD0220FCE70220FAE710B5044600298F
:10310C0053D11046D4F89432022B0CD0042B00D09F
:10311C001BB98021204600F09AFD94F8A032012BB7
:10312C003FD000204DE0236A626A93421DD8E169CA
:10313C00B1FBF2F302FB13132BB98A4203D8D4F878
:10314C00983299421FD3D4F8B432DB682BB194F87F
:10315C009C22032A01D1204698478021204600F06A
:10316C0076FD204600F0F0FBD7E79A1A226292B265
:10317C000146204600F0CDFB00231A461946204696
:10318C0000F09CFDC9E700221146204600F0C1FB6F
:10319C000021C4F898120B460A46204600F08EFD1A
:1031AC00BBE7002084F8A0020BE00A46D0F8B4324A
:1031BC005B693BB190F89C12032905D111469847E5
:1031CC00002010BD0220FCE70220FAE770B504468F
:1031DC0040230022114600F027FD0125C4F8585168
:1031EC004026C4F86461334600228021204600F05A
:1031FC001BFDA561666284F89C520023C4F89432CE
:10320C006360C4F8A432D4F8B8322BB1D4F8B43219
:10321C005B68002120469847002070BD0174002097
:10322C00704790F89C3280F89D32042380F89C32D1
:10323C000020704790F89C32042B01D0002070477E
:10324C0090F89D3280F89C32F8E708B590F89C32E3
:10325C00032B01D0002008BDD0F8B432DB69002B61
:10326C00F8D09847F6E7002302E00133DBB20130D7
:10327C000278002AF9D11846704708B54B88012B03
:10328C0000D008BDC0F8A43200F053FBF9E70B786E
:10329C0003704B7843708B78CA7803EB022343801E
:1032AC000B794A7903EB022383808B79CA7903EB80
:1032BC000223C380704710B50446802100F0C7FC80
:1032CC000021204600F0C3FC10BD30B583B005468C
:1032DC000C460023ADF806304A88130A013B062B36
:1032EC0000F2A480DFE803F004182CA2A28693005D
:1032FC00D0F8B0321B680DF10601007C9847BDF880
:10330C0006201AB1E388002B40F09480E388002B50
:10331C0000F09A8003B030BD037C43B9D0F8B432CE
:10332C009B6A0DF10600984702234370E7E7D0F83B
:10333C00B432DB6A0DF10600984702234370DEE7D6
:10334C00D2B2052A52D8DFE802F003101D2A374406
:10335C00D0F8B0325B6823B10DF10601007C9847C0
:10336C00CDE72146FFF7A7FFD4E7D0F8B0329B6832
:10337C0023B10DF10601007C9847C0E72146FFF709
:10338C009AFFC7E7D0F8B032DB6823B10DF1060124
:10339C00007C9847B3E72146FFF78DFFBAE7D0F8DA
:1033AC00B0321B6923B10DF10601007C9847A6E7EA
:1033BC002146FFF780FFADE7D0F8B0325B6923B14F
:1033CC000DF10601007C984799E72146FFF773FF42
:1033DC00A0E7D0F8B0329B6923B10DF10601007C57
:1033EC0098478CE72146FFF766FF93E72146FFF7E6
:1033FC0062FF8FE7037C33B9D0F8B4325B6B0DF10D
:10340C00060098477BE72146FFF755FF82E7037CD0
:10341C0043B9D0F8B4321B6B0DF106009847072363
:10342C0043706CE72146FFF746FF73E72146FFF731
:10343C0042FF6FE79A4228BF1A46ADF806200146B4
:10344C00284600F059FA61E7284600F072FA61E765
:10345C0038B504468B88F3B9CB88E3B94B887F2BFE
:10346C0019D803F07F0590F89C32032B0CD080F810
:10347C009E52294600F012FC204600F05AFA35B153
:10348C00022384F89C3209E0FFF715FF06E00123C4
:10349C0084F89C3202E02046FFF70DFF38BD000097
:1034AC0038B504460D468978284B197001290ED879
:1034BC0090F89C32022B0ED0032B21D02946FFF71B
:1034CC00FAFE224B19782046FFF79AFD02E02946B6
:1034DC00FFF7F1FE38BD81B14160032380F89C32C7
:1034EC00FFF781FD022803D0204600F022FAF1E715
:1034FC0029462046FFF7DFFEECE700F01AFAE9E771
:10350C0089B1436899421DD0D9B2FFF779FD0F4BB1
:10351C00197861602046FFF766FD02280DD0204621
:10352C0000F007FAD6E7022380F89C324160FFF7DF
:10353C0067FD204600F0FDF9CCE729462046FFF751
:10354C00BAFEC7E700F0F5F9C4E700BFE0010020C0
:10355C0008B5CB88012B0BD190F89C329BB1022B78
:10356C0009D9032B0FD10122011D00F0C5F901E08F
:10357C00FFF7A1FE08BD0146002341F8083F0122D8
:10358C0000F0BAF9F6E7FFF796FEF3E708B590F806
:10359C009C32013B022B12D8CB88022B0CD101237D
:1035AC00C360D0F8A4320BB10323C360022200F134
:1035BC000C0100F0A1F908BDFFF77DFEFBE7FFF75A
:1035CC007AFEF8E708B590F89C32013B022B09D83B
:1035DC004B88012B00D008BD0023C0F8A43200F0AA
:1035EC00A8F9F8E7FFF767FEF5E708B50B7803F0E5
:1035FC006003202B05D0402B03D043B1FFF75BFEBB
:10360C0003E0D0F8B4329B689847002008BD4B7893
:10361C00092B1BD8DFE803F011171A141A08051A26
:10362C000E0BFFF752FEF0E7FFF712FFEDE7FFF787
:10363C0037FFEAE7FFF78CFFE7E7FFF7A7FFE4E7C1
:10364C00FFF71BFEE1E7FFF7BDFFDEE7FFF733FEF9
:10365C00DBE738B505460C460B7803F06003202BEE
:10366C0006D0402B04D01BB1FFF725FE002038BD3F
:10367C0095F89C32013B022B16D82379012B0ED8DE
:10368C00D5F8B4329B68214628469847E388002B2E
:10369C00ECD10028EAD1284600F04BF9E6E72146A8
:1036AC002846FFF708FEE1E721462846FFF703FE10
:1036BC00DCE738B504468A880B7803F06003202BCE
:1036CC0008D0D0B2402B05D05BB12046FFF7F3FDFC
:1036DC00002005E0D4F8B4329B68204698470020BF
:1036EC0038BD202B05D1D4F8B4329B6820469847BE
:1036FC00F6E74B78012B32D0002B5ED0032B40F039
:10370C00D88094F89C32022B06D0032B16D020467E
:10371C00FFF7D1FD0020E3E708B1802804D1204653
:10372C00FFF7C9FD0020DBE70146204600F08FFAC9
:10373C008021204600F08BFA0020D1E74B8823B97A
:10374C0018B1802801D0CB8823B1204600F0F1F8C5
:10375C000020C5E70146204600F079FAF5E794F819
:10376C009C32022B06D0032B16D02046FFF7A3FD6C
:10377C000020B5E708B1802804D12046FFF79BFD57
:10378C000020ADE70146204600F061FA802120467A
:10379C0000F05DFA0020A3E74B88002B40F08E80F0
:1037AC0010F07F0F04D1204600F0C3F8002097E7FB
:1037BC000146204600F053FAF5E794F89C32022BB0
:1037CC0006D0032B2AD02046FFF775FD002087E793
:1037DC0008B1802813D112F0800F15D100F07F00B2
:1037EC0000EB8000830003F5A8712144043100250F
:1037FC000D600222204600F07FF8284670E7204634
:10380C00FFF759FD00206BE700F07F0000EB800014
:10381C00830003F1100121440431E8E752B2002A7D
:10382C001FDB00F00F0303EB83039D002544D5F849
:10383C00583123B3002A27DB00F07F0202EB82020F
:10384C00930003F5A8752544043508B1802825D1CB
:10385C0000232B6002222946204600F04DF8002060
:10386C003EE700F00F0303EB83039D002544AB6997
:10387C00002BDFD12046FFF71EFD002030E720464D
:10388C00FFF719FD00202BE700F07F0202EB82020C
:10389C00930003F1100525440435D6E70146204674
:1038AC0000F0E5F910B101232B60D3E700232B6066
:1038BC00D0E72046FFF7FFFC002011E700200FE7C0
:1038CC00C8B170B50D4616460446FFF7CCFC013066
:1038DC0040003080287003236B70022307E0013412
:1038EC005A1CD2B2E9540233DBB20021A95421781C
:1038FC000029F4D170BD704710B513460222C0F8F0
:10390C009422C36103620A46002100F0CFF9002023
:10391C0010BD08B513460A46002100F0C7F9002077
:10392C0008BD08B513460A46002100F0C7F900206F
:10393C0008BD08B50423C0F8943200231A46194672
:10394C0000F0B4F9002008BD08B50523C0F8943286
:10395C0000231A46194600F0B1F9002008BD0000FA
:10396C0008B500220B490C48FFF71AFB48B90B4964
:10397C000948FFF72CFB38B90748FFF72FFB30B984
:10398C0008BDFCF777FCF2E7FCF774FCF4E7FCF7F6
:10399C0071FCF5E73C01002040020020D000002023
:1039AC0012230B80004870470801002004230B8071
:1039BC00004870471C0100200023934216D230B4FB
:1039CC000BE0373401F8134000015C000134002592
:1039DC000D550133DBB2934206D2040F092CF0D8FB
:1039EC00303401F81340EFE730BC704770470000EB
:1039FC0038B50B4B186804331C6804331B68C018AB
:103A0C0000D138BD074D082205F11A01FFF7D4FF8C
:103A1C00042205F12A012046FFF7CEFFF1E700BF93
:103A2C00E8F7FF1F0801002008B51A230B80FFF7E9
:103A3C00DFFF014808BD00BF2001002008B50A4681
:103A4C0028B105490548FFF73BFF034808BD02496B
:103A5C000248FFF735FFF8E704050020F83D0008A1
:103A6C0010B5044C0A4621460348FFF729FF2046AF
:103A7C0010BD00BF04050020143E000808B50A461E
:103A8C0028B105490548FFF71BFF034808BD02494B
:103A9C000248FFF715FFF8E704050020283E000850
:103AAC0008B50A4628B105490548FFF709FF034840
:103ABC0008BD02490248FFF703FFF8E704050020A0
:103ACC00343E000818B1022803D0022070470020B1
:103ADC00704701207047000002680E4B9A4200D0DC
:103AEC00704700B583B003F5DA33DA6942F40002AB
:103AFC00DA61DB6903F400030193019B0022114698
:103B0C001420FCF71DFD1420FCF74EFD03B05DF8EE
:103B1C0004FB00BF005C004008B500F52C71D0F828
:103B2C00E802FFF774FA08BD08B501EB8102D30077
:103B3C000344D3F87C21D0F8E802FFF795FA08BDCE
:103B4C0008B501EB8102D3000344DA6BD0F8E8022C
:103B5C00FFF7D3FA08BD08B5D0F8E802FFF775FBFC
:103B6C0008BD10B504468368022B01D0FCF782FB1C
:103B7C000121D4F8E802FFF751FBD4F8E802FFF773
:103B8C0025FB10BD10B50446D0F8E802FFF749FB41
:103B9C00A36923B1024A136943F00603136110BDF4
:103BAC0000ED00E008B5D0F8E802FFF743FB08BDD4
:103BBC0010B504461648C0F8E842C4F8C002154BCC
:103BCC000360082343600223836000238361C36185
:103BDC000362FCF77EFEB8B9182300221146D4F814
:103BEC00C002FDF734FD582300228021D4F8C00216
:103BFC00FDF72DFD4FF4807300228121D4F8C00213
:103C0C00FDF725FD002010BDFCF734FBE4E700BFF9
:103C1C0004070020005C004008B5D0F8C002FCF797
:103C2C00DEFEFFF74FFF08BD10B51C4613462246BB
:103C3C00D0F8C002FDF7E5FBFFF744FF10BD08B557
:103C4C00D0F8C002FDF717FCFFF73CFF08BD08B524
:103C5C00D0F8C002FDF786FCFFF734FF08BD08B5AD
:103C6C00D0F8C002FDF7B9FCFFF72CFF08BDD0F867
:103C7C00C03211F0800F08D101F07F0101EB8101FE
:103C8C00CA00134493F86A01704701F07F010131B7
:103C9C0001EB8101CA0013449878704708B5D0F83D
:103CAC00C002FDF7B3FAFFF70DFF08BD08B5D0F859
:103CBC00C002FDF732FCFFF705FF08BD08B5D0F8D0
:103CCC00C002FDF709FCFFF7FDFE08BD0048704778
:103CDC00E4010020704770470C480D490D4A002341
:103CEC0002E0D458C4500433C4188C42F9D30A4AA5
:103CFC000A4C002301E013600432A242FBD3FCF710
:103D0C00AFFB00F00FF8FCF711FB70470000002030
:103D1C00580100204C3E000858010020F0090020FA
:103D2C00FEE7000070B500250C4E0D4CA41BA41032
:103D3C00A54209D100F01AF800250A4E0A4CA41B22
:103D4C00A410A54205D170BD56F825309847013511
:103D5C00EEE756F8253098470135F2E7443E000867
:103D6C00443E0008443E0008483E0008F8B500BF39
:103D7C00F8BC08BC9E467047F8B500BFF8BC08BC40
:043D8C009E46704798
:103D900000000000000000000102030406070809FB
:103DA00000000000010203040203040506070809DD
:103DB0000A0B0C0D0E0F1010010200004869692C4F
:103DC000205468697320697320416E6B69742044C4
:103DD000657667616E6979612066726F6D20415505
:103DE0004D2044494120544543484E4F4C4F47498C
:103DF00045530A0A0000000053544D333220416EEF
:103E00006B69745F48494420696E746572666163CA
:103E10006500000053544D6963726F656C6563748F
:103E2000726F6E696373000048494420436F6E6689
:103E30006967000048494420496E74657266616391
:043E40006500000019
:043E44003101000840
:043E48000D01000860
:103E4C000024F40001000000100000000902220010
:103E5C00010100E032090400000103010100092105
:103E6C0011010001223F000705810304000A000034
:103E7C0009022200010100E03209040000010301E3
:103E8C000200092111010001223F000705810304F2
:103E9C000007000009022200010100E032090400C1
:103EAC00000103010200092111010001223F00075A
:103EBC0005810304000A00000A060002000000400D
:103ECC000100000005010906A101050719E029E719
:103EDC00150025017501950881029501750881036E
:103EEC0095057501050819012905910295017503C0
:103EFC0091039506750815002565050719002965B8
:103F0C008100C000092111010001223F00000000C6
:103F1C005B2F0008392F0008212E0008000000003C
:103F2C0000000000092E0008000000000000000046
:103F3C000000000000000000F12D0008E52D000835
:103F4C00FD2D0008152E0008120100020000004093
:103F5C0083042B570002010203010000040309042F
:103F6C001A03000000000000000000000000000028
:103F7C00000000000000000000000000AD39000847
:103F8C00B93900086D3A0008493A0008353A00087A
:083F9C00893A0008AD3A000863
:0400000508003CE5CE
:00000001FF
